:10000000D0040020190B0000210B00000D08000097
:1000100000000000000000000000000000000000E0
:10002000000000000000000000000000210B0000A4
:100030000000000000000000210B0000210B000068
:10004000210B0000210B0000210B0000BD09000066
:10005000210B000085090000210B0000210B00008E
:10006000C1000000210B0000210B0000210B00004B
:10007000F9080000210B0000210B0000210B0000FB
:10008000210B0000210B0000210B0000210B0000C0
:10009000210B0000210B0000210B0000210B0000B0
:1000A000210B0000210B0000210B0000210B0000A0
:1000B000210B0000210B0000210B0000210B000090
:1000C0000120844908607047F8B5834C2068834953
:1000D000014021602068C021090101432160804D59
:1000E000E1214902280000F02BF901276868384314
:1000F000686038037B490860A0687B490140A160C3
:10010000A068A060794E01220421300000F07EF941
:10011000774DAF60A06877490140A160A068A060FA
:1001200001220221300000F071F96F60A06872496D
:100130000140A160A068A06001220121300000F010
:1001400065F92F6020696D490140216120692061B6
:10015000803601221021300000F058F92F656068C8
:1001600066490140616060686060654D0022102151
:10017000280000F04BF93F043A000421280000F069
:100180005CF920205749086060685E490140616061
:100190006068606000220821280000F037F93A000A
:1001A0000321280000F049F9606857490140616067
:1001B0006068606000220421280000F027F93A00FE
:1001C0000221280000F039F900220421300000F05B
:1001D0001DF93A000221300000F02FF908204149B2
:1001E000086028213164696910220A436A616969DB
:1001F00008436861042069690143696171690843C2
:100200007061F1BD70B5FFF75FFF022401253F4E1D
:1002100005E0012000F020F9306868403060306867
:100220002842F6D12042FDD0022000F015F93068B6
:100230006040F3E738B588201621354C59222260FA
:10024000216020602368002BF9D032480168324ACF
:100250000A400260016803220A4302602F4D2868A9
:100260002F490140296028680121014329600120AC
:1002700000F026F928690721884328612869286148
:10028000286938218843286128692861A868254998
:100290000140A960A86804210143A960A8688021E1
:1002A00049020143A960A868802149030143A9606C
:1002B00068691D49014069616869686168696861C8
:1002C000A8691A490140A96100F00AF900202060DC
:1002D00031BD00000800014034000050F3F3FFF38B
:1002E0000000054000E100E0FBFBFFFBC0400050C8
:1002F00060420050FDFDFFFFFEFEFFFFEFEFFFFF3E
:1003000080400050F7F7FFFFFBFBFFFFCC00002011
:100310000001005044000050FCFCFFFF00020050B0
:1003200000FDFFFFB2EC8C2FC088FF0CF0F000FF47
:1003300080B5FFF77FFFFFF765FF002002BD0000DB
:10034000F8B504000D000021002003222A4E336876
:100350001F0E03233B402163E260A16001D12748C7
:1003600029E0012B23D1684627A31F680760F368A3
:10037000300B184001D000201DE0180301D52049A2
:1003800000E01E4988089F0301D5080013E0D90545
:10039000C90D891C48439904C90E891C6F469B0BE3
:1003A0001A40BA5C514300F0EBF8800003E0022BE6
:1003B00001DB1448006871680905090F491C00F049
:1003C000DFF80600002D16D068083018290000F06C
:1003D000D7F8801E80214902884208D3E8003018EF
:1003E000290000F0CDF80009801E6062F1BDC02137
:1003F000890501436162F1BD14020050001BB70082
:10040000008051010000002001020204D0B400234A
:100410000024060010000A00DA40D20707D532682F
:100420000327A740BA430700A740174337605B1C68
:10043000A41C082BEFD3D0BC704710B48369140EF2
:100440008C401C438461C3691202120A8A401A4319
:10045000C26110BC70470000012809D116484078DD
:10046000012828D11548816801224A4082607047DE
:10047000022809D11048C07801281CD10F484168D2
:1004800001224A4042607047032809D10A48407956
:10049000012810D10948016D01224A4002657047C8
:1004A000042808D10448C079012804D10348016810
:1004B00001224A4002607047A800002060420050BC
:1004C0000549064A13680340834203D0491EF9DAFE
:1004D000002070470120704780F520000C0200507A
:1004E00038B5684625A10A6802601E4C2269200BB7
:1004F000104001D0002116E0100301D51A4900E098
:100500001A49880893030ED4D105C90D891C4843A4
:100510009104C90E891C6B461204920F9A5C5143D8
:1005200000F02EF88100124D696020684107490FE4
:1005300001D10E4808E0022901D1686804E00329CE
:1005400001D10C4800E00848A1680907090F491CBF
:1005500000F016F8286008494018490000F010F82B
:10056000A86031BD1002005000805101001BB7008F
:10057000040000201027000020A10700010202044F
:100580000022030A8B420BD203098B4219D2430883
:100590008B422ED2411A00D201465241104670477A
:1005A000FF2209023FD012068B4205D31212090224
:1005B0008B4201D31212090203098B4219D300E0C6
:1005C000090AC3098B4201D3CB01C01A52418309E6
:1005D0008B4201D38B01C01A524143098B4201D394
:1005E0004B01C01A524103098B4201D30B01C01ABF
:1005F0005241C3088B4201D3CB00C01A5241830839
:100600008B4201D38B00C01A524143088B4201D365
:100610004B00C01A5241884200D3401A5241CFD2F7
:1006200001461046704708B5C046C04608BD70B5C3
:1006300006000800002B06D014001D002178B047EA
:10064000641C6D1EFAD170BDF8B588B0029000919F
:100650000392019309E00123039A00990298FFF79E
:10066000E6FF00900398401C039003980078002850
:1006700021D02528EFD1039840780399891C039154
:100680000100252812D0582867D0632815D0642887
:100690001BD0692819D06F285FD0702864D07328C8
:1006A0006AD0752859D0782857D0DEE70098029A8A
:1006B00090470090D9E709B0F0BD01980068016843
:1006C000001D019A1060C9B2F0E701980068046843
:1006D000001D01990860002C04D52D210098029A74
:1006E0009047009064206F2801D1082506E0202162
:1006F0000143782901D00A2500E010250B272600A8
:10070000642803D1002C01D571420E0004007F1E25
:10071000049730002900FFF733FF3031C8B23A2880
:1007200002DB20005138091805A8C0190490017097
:1007300030002900FFF724FF060001D0002FE6DC7F
:10074000049C00980B21CD1BB3D0029E2178B047AA
:10075000641C6D1EFAD10296ABE7019909680C681A
:10076000091D019A1160BEE7019800680468001D28
:10077000019908607820B6E7019800680468001DB8
:1007800001990860200000F00BF80500009890D057
:10079000029E2178B047641C6D1EFAD1029688E74C
:1007A000431C0178401C0942FBD1C01A704700006D
:1007B00010B50400216800BF27A000F089F8616827
:1007C00028A000F085F8A16829A000F081F8E16870
:1007D0002AA000F07DF821692BA000F079F861696A
:1007E0002CA000F075F8A1692DA000F071F8E16966
:1007F0002EA000F06DF810BD10B504002EA000F082
:1008000067F82000FFF7D4FFFEE7000004207146E0
:10081000084202D0EFF3098001E0EFF3088071464F
:10082000EAE7FEE700E0000080210904094A936935
:100830000B40FCD110600A2804D190690840FCD11B
:100840000D201060704710B50400FFF7EBFF20008B
:1008500010BD000000000540723020203D2030789F
:1008600025780A00723120203D20307825780A0052
:10087000723220203D20307825780A007233202003
:100880003D20307825780A00723132203D203078C2
:1008900025780A006C7220203D20307825780A00E7
:1008A000706320203D20307825780A007073722014
:1008B0003D20307825780A00496E20486172642016
:1008C0004661756C742048616E646C65720A000044
:1008D0000EB4C0B5020003A801900020009001AB47
:1008E0000121044878440C30FFF7AEFE029906B0AF
:1008F000084700BFF101000010B41F48C169C905D5
:1009000004D410BC70474B7000220A700123C169E7
:100910001940F6D00268D2B21849282A02D18C7840
:10092000002CF0D08B78002B04D14B78002B01D019
:100930008A70EBE7292A0CD18B780C78A34208D176
:1009400000224A708A700E490A68102313430B6014
:10095000DCE78B780C78A34202D200224A70E7E7EA
:100960004B78002B05D00B785C1C0C70C9180A71F1
:10097000CCE70022DCE700BF00000540BC000020FF
:10098000CC00002012480168C90603D511490A6845
:10099000012305E00168090705D50E490A6802230D
:1009A00013430B6007E004220168114003D009499A
:1009B0000B681A430A600168016070470420064909
:1009C00008600448016808220A430260704700007A
:1009D000A0400050CC0000206041005070B40123C2
:1009E000002413E00168001D194202D04D466D1E1F
:1009F00049190C60091D121F042AFAD20D0096072E
:100A000001D50C80AD1C1A4000D02C700268001D6E
:100A1000002AE7D170BC704730B5016841184468BE
:100A200062088A188368E40704D54C461B1901E064
:100A3000641C06D191420BD00C7864B2491C0D782D
:100A4000491C1D705B1C002CF2D4641EF7D5F1E725
:100A50000C3030BD10B5074979441831064C7C4440
:100A6000163404E0081D0A68891888470100A1426D
:100A7000F8D110BD080000002400000061FFFFFF56
:100A80007800000058000020000000008DFFFFFFEC
:100A9000920000006C000000000000200120C04611
:100AA000002801D0FFF7D6FF00BF00BF002000BF25
:100AB00000BFFFF73DFC00F000F880B500F002F841
:100AC00001BD00000746384600F002F8FBE70000D1
:100AD00080B500BF00BF024A11001820ABBEFBE783
:100AE0002600020038B505000C00200000F006F8D2
:100AF000A04200D00025280032BD000080B5024988
:100B0000FFF7A1FE02BD00BF1000002000BF00BF24
:100B100000BF00BFFFF7C2FF004800470D0B0000F9
:100B2000FEE70300805101FB0002805101FC00132D
:100B30000204010158000020A800002058000020F5
:100B400058000020FC000358000020FC000754005F
:080B5000002040000020E0003D
:0400000500000B19D3
:00000001FF
