:1000000030050020F5120000FD120000CD100000A8
:1000100000000000000000000000000000000000E0
:10002000000000000000000000000000FD120000C1
:100030000000000000000000FD120000FD120000A2
:10004000FD120000FD120000050D0000170D00005C
:10005000FD120000C10C0000FD120000FD120000A6
:10006000BD03000073060000FD120000FD12000039
:1000700031080000FD120000FD120000FD1200001A
:10008000FD120000FD120000FD120000FD12000034
:10009000FD120000FD120000FD120000FD12000024
:1000A000FD120000FD120000FD120000FD12000014
:1000B000FD120000FD120000FD120000FD12000004
:1000C0007CB5040001206D462870AF4A50756870F9
:1000D000AE4E210005D0022C2DD017D3032C3FD0DB
:1000E00057E0B4493278002A02D1FF22327001E091
:1000F000002030700860706800284AD0AE4801784F
:10010000FE220A4002700020706040E0A949327B64
:10011000002A02D1FF22327301E0002030734860D0
:100120003069002835D0A4480178FD220A400270C9
:10013000002030612BE09F49327E002A02D1FF224D
:10014000327601E0002030768860F069002820D007
:1001500099480178FB220A4002700020F06116E005
:1001600031002431934A2423F35C002B02D1FF2376
:100170000B7001E000200870D060B06A002808D041
:100180008D480178F7220A4002700020B06200F02A
:100190003CFAAC70600000198000305CE87004210B
:1001A000684600F084FB0421684600F0F1F873BD56
:1001B000F0B585B0744800780021002800DCD8E054
:1001C000724C2200243201927A4F009102906E48C4
:1001D000009941188D78009940184078002806D081
:1001E000022860D032D3032800D189E0B8E07248F9
:1001F0000078FE210140704801706078012809D123
:10020000002D03D0FF202070012001E0002020708D
:100210003860A5E0002D01D0FF2D0CD100266660CE
:1002200000F0F3F9002D01D13E600DE0FF2D0BD160
:100230000120386008E06048017801220A4302701A
:100240002900002000F0EFF9257089E05A48017874
:10025000FD220A400270617B012909D1002D03D0E3
:10026000FF202073012001E000202073786077E0F8
:10027000002D01D0FF2D0CD10026266100F0C5F91C
:10028000002D01D17E600CE0FF2D0AD101207860A5
:1002900007E0017802220A4302702900012000F0E1
:1002A000C2F925735CE044480178FB220A400270E1
:1002B000617E012909D1002D03D0FF202076012085
:1002C00001E000202076B8604AE0002D01D0FF2D2B
:1002D0000CD10026E66100F098F9002D01D1BE6036
:1002E0000CE0FF2D0AD10120B86007E0017804225C
:1002F0000A4302702900022000F095F925762FE0CC
:100300002D480178F7220A4002702521615C0129FD
:100310000BD1002D04D0FF2001990870012002E0CC
:100320000020019A1070F8601AE0002D01D0FF2D16
:100330000CD10026A66200F068F9002D01D1FE6004
:100340000CE0FF2D0AD10120F86007E001780822B7
:100350000A4302702900032000F065F90198057036
:100360000098801CC0B200900298401E029000D0FD
:100370002DE703A8052101700349497D4170022141
:1003800000F095FA05B0F0BDFC000020CC00002084
:1003900030B4834A0B0008D013000C330C000578EE
:1003A0001D70401C5B1C641EF9D191750120D07535
:1003B00030BC7047484200501501002079480121A7
:1003C000016081698022D2040A43826181698022AE
:1003D000D2050A4382617248C17D002900D170476D
:1003E00080B5017E491C0176017E502905DB002184
:1003F0000176817D0C3000F05AFA01BD70B56A4C6F
:10040000217867480175627842750300A41C0525B0
:1004100026781E7066785E70A41C9B1C6D1EF7D13A
:1004200001290DD0042908D005290BD1417B8A422E
:1004300008D10021C175017670BDFFF7B9FE70BD0E
:1004400000F03EF870BDF8B5012058494870487377
:10045000487625228854564C206856490140216030
:1004600020682060544F01220421380000F062FA15
:10047000524E0025356020685149014021602068B6
:10048000206001220821380000F054FA75602068CD
:100490004C49014021602068206001221021380071
:1004A00000F048FAB56020684749014021602068A3
:1004B000206001222021380000F03CFAF560F1BDF7
:1004C000F0B583B036480078002700285DDD374C52
:1004D00000903348C1198D78C0194078002805D0A4
:1004E000022828D015D3032837D048E060680028B8
:1004F0000DD0012D0BD135480078FE210140334845
:1005000001700026666000F080F82C480660657077
:1005100035E0206900280CD0012D0AD12B48017844
:10052000FD220A4002700026266100F06EF8234882
:100530004660657323E0E06900280CD0012D0AD1E4
:1005400022480178FB220A4002700026E66100F092
:100550005CF81A488660657611E0A06A00280CD025
:10056000012D0AD119480178F7220A4002700026AD
:10057000A66200F04AF81148C66025202554BF1C29
:10058000FFB20098401E0090A3D101A80521017080
:100590000349497D4170022100F089F903B0F0BDA3
:1005A000FC000020080001401C010020CC000020BD
:1005B00038000050FBFBFFFF8040005048420050D5
:1005C000F7F7FFFFEFEFFFFFDFDFFFFF1501002071
:1005D00070B400248B4802000C32611C04290EDA2E
:1005E000A300C318103304252C1B641E15681E6855
:1005F000AE4201D216601D601B1D641EF6D10C00B8
:10060000121D042CE9DB70BC704780B57D487E4923
:100610008A68C2604A6902610A6A4261C96A816184
:10062000FFF7D6FF01BDFF22511A3A22514389B28A
:10063000754A43001818800010184160704710B4C4
:10064000724873490160734A42606E4904230B7219
:1006500003688024A4051C430460430D6E4C236092
:10066000CA61C8320A6201685A050A43026010BCB6
:100670007047F8B5694F01247C60624D287A0428E0
:1006800035D1002660484168002901D064490E60D8
:100690000169002901D062494E60C169002901D079
:1006A0005F498E60806A002801D05D48C66000F016
:1006B00027F8E868002807D02E7228000C30297A25
:1006C0008900405838600BE0012628690028F3D1E2
:1006D000022668690028EFD10326A8690028EBD11B
:1006E000287A04280BD12872E8693860F1BD280007
:1006F0000C30297A8900405880B200F02AF8F1BD08
:10070000F8B500230025474C474901229A400E784E
:10071000164215D02668251F2F68BE42266801D2D2
:100720003A3604E02F68B74202D226683A3E266085
:1007300026682D68B54202D10D7895430D700125CC
:100740005B1C0C34042BE0DB002D01D0FFF75DFFB8
:10075000F1BDF0B40021354A2A4B2B4CA5688542E7
:100760000BD1012501216668002E06D01E78760186
:100770001F79BF00F619B6183560656985420BD13F
:10078000491C2569002D07D05D786D015E79B600A2
:10079000AD19AD1801262E60256A85420BD1491C82
:1007A000E569002D07D09D786D019E79B600AD19E1
:1007B000AD1801262E60E56A85420BD1491CA06A5E
:1007C000002807D0D8784001DC79A40000198018EF
:1007D0000122026008060ED0187A40181872187AA2
:1007E000042801DD04201872187A80001818C068E7
:1007F0000A49086004E0D8690849086004201872B2
:10080000F0BC704700000020CC0000202000014018
:1008100007000018D039000000E100E0240001408A
:1008200048420050D4000020150100200042005032
:1008300010B43A48C169C90504D410BC70474B7064
:1008400000220A700123C1691940F6D00268D2B2B1
:100850003349282A02D18C78002CF0D08B78002BD9
:1008600004D14B78002B01D08A70EBE7292A0CD1F8
:100870008B780C78A34208D100224A708A702949EB
:100880000A68102313430B60DCE78B780C78A342D3
:1008900002D200224A70E7E74B78002B05D00B7894
:1008A0005C1C0C70C9180A71CCE70022DCE730B57B
:1008B00087B06B4628221A70597002220C0008D0AB
:1008C0008A1C6C46A41C05782570401C641C491EBB
:1008D000F9D12920D1B25854521CD2B269460F48DE
:1008E00000F0B2F807B030BD10B50F4801680F4AEC
:1008F0000A4002600168C02212010A430260074CEC
:10090000E1214902200000F03BF860680121014329
:100910006160802040010649086010BD000005406C
:10092000180100202C01002034000050F3F3FFF3E5
:1009300000E100E0D0B400230024060010000A000B
:10094000DA40D20707D532680327A740BA43070029
:10095000A740174337605B1CA41C082BEFD3D0BC07
:10096000704710B48369140E8C401C438461C369C2
:100970001202120A8A401A43C26110BC704700007A
:10098000F8B504000D000021002003222A4E336830
:100990001F0E03233B402163E260A16001D1274881
:1009A00029E0012B23D1684633A31F680760F36851
:1009B000300B184001D000201DE0180301D520495C
:1009C00000E01E4988089F0301D5080013E0D905FF
:1009D000C90D891C48439904C90E891C6F469B0B9D
:1009E0001A40BA5C514300F049F8800003E0022B42
:1009F00001DB1448006871680905090F491C00F003
:100A00003DF80600002D16D068083018290000F0C7
:100A100035F8801E80214902884208D3E80030184A
:100A2000290000F02BF80009801E6062F1BDC02192
:100A3000890501436162F1BD14020050001BB7003B
:100A4000008051012400002003000020002A00D172
:100A5000704770B480246405A5009E69264003D1C8
:100A60006D1EFAD1002005E00D781D60401C491C68
:100A7000521EF1D170BC7047010202040022030A29
:100A80008B420BD203098B4219D243088B422ED2E0
:100A9000411A00D20146524110467047FF22090216
:100AA0003FD012068B4205D3121209028B4201D3AA
:100AB0001212090203098B4219D300E0090AC30983
:100AC0008B4201D3CB01C01A524183098B4201D31F
:100AD0008B01C01A524143098B4201D34B01C01A0A
:100AE000524103098B4201D30B01C01A5241C30882
:100AF0008B4201D3CB00C01A524183088B4201D3F1
:100B00008B00C01A524143088B4201D34B00C01ADC
:100B10005241884200D3401A5241CFD2014610467A
:100B2000704708B5C046C04608BD00005348544948
:100B30000160544941600168802292050A430260C5
:100B4000810D514A116001688022D2050A4302607A
:100B50007047F8B5FFF7C8FE00F0E6F8FFF773FC42
:100B6000FFF76DFDFFF7E2FF02270124474D05E087
:100B70000020FFF7A5FA6868604068606868002890
:100B8000FCD02878401C287068682040F0D1686844
:100B9000384005D00120FFF793FA68687840ECE709
:100BA00004266868304006D00220FFF789FA68689A
:100BB00046406E60E2E76868000707D50320FFF74C
:100BC0007FFA6868082141406960D7E76868C00615
:100BD000D4D5FFF713FC68681021F4E738B58820F6
:100BE00016212B4C59222260216020602368002BA3
:100BF000F9D028480168284A0A40026001680322A7
:100C00000A430260254D286825490140296028686B
:100C1000012101432960012000F008F9286907211A
:100C20008843286128692861286938218843286118
:100C300028692861A8681B490140A960A8680421A7
:100C40000143A960A86808210143A960A868802120
:100C500049020143A96068691349014069616869F3
:100C600068616869686168696861A8690F490140DD
:100C7000A96100F0EBF80020206031BD00000140C8
:100C800007000008983A000000E100E02801002079
:100C90000001005044000050FCFCFFFF0002005027
:100CA00000FDFFFFB2EC8C2FC088FF0CF0F000FFBE
:100CB00080B5FFF793FFFFF74CFF002002BD000057
:100CC00002214E4802680A4003D04D4A1368194376
:100CD00011600168C90704D549490A680423134310
:100CE0000B60016849060AD546490A688023DB047F
:100CF00013430B600A688023DB0513430B60016814
:100D00000160704704203D4908603D4801680122A8
:100D10000A430260704704203B4908603848016874
:100D200008220A4302607047F8B5384D28683849F0
:100D30000140296028682860364C002204212000E8
:100D4000FFF7F8FD8022520202212000FFF709FE82
:100D5000042731480760314E002204213000FFF79C
:100D6000E9FDBA0302213000FFF7FBFD08202A4904
:100D7000086028682A490140296028682860002204
:100D800002212000FFF7D6FDBA0301212000FFF762
:100D9000E8FD202020490860286822490140296098
:100DA00028682860002201212000FFF7C3FDBA0354
:100DB00000212000FFF7D5FD28681B49014029606C
:100DC00028682860002240212000FFF7B3FD01229F
:100DD00006212000FFF7C5FD282030646069074325
:100DE000676160690221014361616069012101431A
:100DF00061617069102101437161F1BDE0400050F3
:100E00002C01002020000140604100503C000050B7
:100E1000FBFBFFFBC040005000E100E04041005000
:100E2000FDFDFFFFFEFEFFFFBFBFFFFF0549064AB6
:100E300013680340834203D0491EF9DA002070474B
:100E40000120704780F520000C02005038B568463C
:100E500025A10A6802601E4C2269200B104001D0B7
:100E6000002116E0100301D51A4900E01A4988084C
:100E700093030ED4D105C90D891C48439104C90EB2
:100E8000891C6B461204920F9A5C5143FFF7F6FDE2
:100E90008100124D696020684107490F01D10E4859
:100EA00008E0022901D1686804E0032901D10C4857
:100EB00000E00848A1680907090F491CFFF7DEFD9B
:100EC0002860084940184900FFF7D8FDA86031BDE7
:100ED0001002005000805101001BB70028000020C4
:100EE0001027000020A107000102020470B50600CF
:100EF0000800002B06D014001D002178B047641CA8
:100F00006D1EFAD170BDF8B588B0029000910392C1
:100F1000019309E00123039A00990298FFF7E6FF85
:100F200000900398401C039003980078002821D07B
:100F30002528EFD1039840780399891C039101007B
:100F4000252812D0582867D0632815D064281BD0D4
:100F5000692819D06F285FD0702864D073286AD0B0
:100F6000752859D0782857D0DEE70098029A904724
:100F70000090D9E709B0F0BD019800680168001D34
:100F8000019A1060C9B2F0E7019800680468001D7A
:100F900001990860002C04D52D210098029A9047F1
:100FA000009064206F2801D1082506E0202101432C
:100FB000782901D00A2500E010250B272600642897
:100FC00003D1002C01D571420E0004007F1E04974E
:100FD00030002900FFF752FD3031C8B23A2802DB59
:100FE00020005138091805A8C0190490017030007C
:100FF0002900FFF743FD060001D0002FE6DC049C2A
:1010000000980B21CD1BB3D0029E2178B047641C01
:101010006D1EFAD10296ABE7019909680C68091DAB
:10102000019A1160BEE7019800680468001D0199EB
:1010300008607820B6E7019800680468001D0199EF
:101040000860200000F00CF80500009890D0029E87
:101050002178B047641C6D1EFAD1029688E7000023
:10106000431C0178401C0942FBD1C01A70470000A4
:1010700010B50400216800BF27A000F089F861685E
:1010800028A000F085F8A16829A000F081F8E168A7
:101090002AA000F07DF821692BA000F079F86169A1
:1010A0002CA000F075F8A1692DA000F071F8E1699D
:1010B0002EA000F06DF810BD10B504002EA000F0B9
:1010C00067F82000FFF7D4FFFEE700000420714618
:1010D000084202D0EFF3098001E0EFF30880714687
:1010E000EAE7FEE700E0000080210904094A93696D
:1010F0000B40FCD110600A2804D190690840FCD153
:101100000D201060704710B50400FFF7EBFF2000C2
:1011100010BD000000000540723020203D203078D6
:1011200025780A00723120203D20307825780A0089
:10113000723220203D20307825780A00723320203A
:101140003D20307825780A00723132203D203078F9
:1011500025780A006C7220203D20307825780A001E
:10116000706320203D20307825780A00707372204B
:101170003D20307825780A00496E2048617264204D
:101180004661756C742048616E646C65720A00007B
:101190000EB4C0B5020003A801900020009001AB7E
:1011A0000121044878440C30FFF7ADFE029906B0E7
:1011B000084700BF0D01000070B40123002413E0B4
:1011C0000168001D194202D04D466D1E49190C6080
:1011D000091D121F042AFAD20D00960701D50C80B2
:1011E000AD1C1A4000D02C700268001D002AE7D107
:1011F00070BC704730B501684118446862088A18AD
:101200008368E40704D54C461B1901E0641C06D131
:1012100091420BD00C7864B2491C0D78491C1D70AA
:101220005B1C002CF2D4641EF7D5F1E70C3030BD06
:1012300010B5074979441831064C7C44163404E053
:10124000081D0A68891888470100A142F8D110BD1D
:10125000080000002400000061FFFFFFB400000050
:101260007C000020000000008DFFFFFF92000000C6
:101270007A000000000000200120C046002801D0B4
:10128000FFF7D6FF00BF00BF002000BF00BFFFF781
:101290000FFD00F000F880B500F002F801BD00007D
:1012A0000746384600F002F8FBE7000080B500BFB3
:1012B00000BF024A11001820ABBEFBE72600020067
:1012C00038B505000C00200000F006F8A04200D060
:1012D0000025280032BD000080B50249FFF713FF4A
:1012E00002BD00BF3400002000BF00BF00BF00BF30
:1012F000FFF7C2FF00480047E9120000FEE7FB02CB
:1013000002030405E30002805101FB000280510149
:10131000FC0013020401017C000020CC0000207CB2
:101320000000207C000020FC00037C000020FC006A
:0B133000077800002064000020E000AF
:04000005000012F5F0
:00000001FF
