:1000000030050020411200004912000019100000C4
:1000100000000000000000000000000000000000E0
:100020000000000000000000000000004912000075
:10003000000000000000000049120000491200000A
:1000400049120000491200004B0C00005D0C00003A
:1000500049120000F90B000049120000491200008B
:100060005502000045050000491200004912000039
:10007000590700004912000049120000491200000F
:100080004912000049120000491200004912000004
:1000900049120000491200004912000049120000F4
:1000A00049120000491200004912000049120000E4
:1000B00049120000491200004912000049120000D4
:1000C00038B50C00002805D0022832D018D30328F8
:1000D00048D031BD7A4D6878012809D19E48002C5E
:1000E00003D0FF212970012100E02970016031BD9A
:1000F0009A48017801220A430270210000204AE058
:100100006F4D687B012809D19348002C03D0FF2153
:100110002973012100E02973416031BD8F480178C6
:1001200002220A4302702100012000F0D6F92C734C
:1001300031BD634D687E012809D18748002C03D06A
:10014000FF212976012100E02976816031BD8348B5
:10015000017804220A4302702100022000F0BDF958
:100160002C7631BD5648050024352521405C0128F8
:100170000AD17948002C03D0FF212970012101E028
:1001800000212970C16031BD7448017808220A43FA
:1001900002702100032000F0A0F92C7031BD7CB565
:1001A000040001206D4628706D4A50756870A5489E
:1001B00062001119890046183078002801D000210A
:1001C00000E0FF212000FFF77BFFAC703078E87083
:1001D0000421684600F0FFFA0421684600F019F88F
:1001E00073BD7CB55E4E35780024002D08DD3019D6
:1001F00081784078FFF764FFA41CE4B26D1EF6D14D
:10020000684605210170717D4170022100F0E3FA1A
:1002100073BD30B4524A0B0008D013000C330C00ED
:1002200005781D70401C5B1C641EF9D1917501207E
:10023000D07585488549416001688022D2050A430E
:10024000026030BC704780B54548817D0C3000F0BD
:10025000C2FA01BD7C48012181604149C97D002964
:1002600004D07B48016820220A4302E00168794AF1
:100270000A400260704770B5774C217838480175A4
:10028000627842750300A41C052526781E706678E6
:100290005E70A41C9B1C6D1EF7D101290DD0042992
:1002A00008D005290BD1417B8A4208D10021C175B4
:1002B000017670BDFFF795FF70BD00F053F870BD7B
:1002C000CC000020F8B55F48032141700121417343
:1002D000417625228154614C2068614901402160AA
:1002E000206820605F4F01220421380000F0B6FA38
:1002F000194E0025356020685B4901402160206867
:10030000206001220821380000F0A8FA75602068FA
:1003100056490140216020682060012210213800E8
:1003200000F09CFAB56020685149014021602068C6
:10033000206001222021380000F090FAF56020684A
:100340004C49014021602068206001224021380092
:1003500000F084FA3561F1BD4842005008000020E9
:10036000FC000020F0B583B0434800780027002847
:100370005DDD344C00904048C1198D78C01940783B
:10038000002805D0022828D015D3032837D048E00C
:10039000606800280DD0012D0BD138480078FE216F
:1003A0000140364801700026666000F088F8344845
:1003B0000660657035E0206900280CD0012D0AD157
:1003C0002E480178FD220A4002700026266100F0C6
:1003D00076F82B484660657323E0E06900280CD06E
:1003E000012D0AD125480178FB220A40027000261F
:1003F000E66100F064F822488660657611E0A06A44
:1004000000280CD0012D0AD11C480178F7220A409F
:1004100002700026A66200F052F81948C660252036
:100420002554BF1CFFB20098401E0090A3D101A824
:10043000052101701049497D4170022100F0CBF97E
:1004400003B0F0BDCC00002000000140804F12003E
:100450002C010020FFFFFFBF1C01002038000050CE
:10046000FBFBFFFF80400050F7F7FFFFEFEFFFFFC0
:10047000DFDFFFFFBFBFFFFFFC0000200800002000
:100480004842005070B40024A74802000C32611C9E
:1004900004290EDAA300C318103304252C1B641E94
:1004A00015681E68AE4201D216601D601B1D641ED9
:1004B000F6D10C00121D042CE9DB70BC704780B52E
:1004C00099489A498A68C2604A6902610A6A426127
:1004D000C96A8161FFF7D6FF01BD0A0001D1012180
:1004E00002E0F52900DBF421904A4300181880004F
:1004F00010188268002A04D10278002A01D18C4A9F
:100500008260FF22511A3A22514389B241607047FA
:1005100010B4884888490160884A426082490423AF
:100520004B7203688024A4051C430460430D844C73
:100530002360CA61C8320A6201685A050A43026030
:1005400010BC7047F8B57F4F01247C60764D687A07
:10055000042835D1002675484168002901D07A4920
:100560000E600169002901D077494E60C1690029F8
:1005700001D075498E60806A002801D07248C6603B
:1005800000F027F8E868002807D06E7228000C30C9
:10059000697A8900405838600BE0012628690028F4
:1005A000F3D1022668690028EFD10326A869002844
:1005B000EBD1687A04280BD16872E8693860F1BD24
:1005C00028000C30697A8900405880B200F052F857
:1005D000F1BDF8B500200024534B5C4A5C4901256D
:1005E000A540514E377A2F4239D008680F1F3F6817
:1005F000B842086801D23A3005E00F1F3F688742D1
:1006000002D208683A38086008680F1F3F688742BE
:1006100024D1307AA8433072080008380578002DBC
:100620000CD100200D1F286008601D786D01167820
:10063000B600AD19474EAD1928600FE00078FF28CD
:100640000CD100200D1F2860086018784001157833
:10065000AD0040193F4D4019012505600120641C83
:100660000C31521C5B1C042CB9DB002801D0FFF7B5
:1006700026FFF1BDF0B40021364A2B4B2B4CA56868
:1006800085420BD1012501216668002E06D01E7817
:1006900076011F79BF00F619B61835606569854285
:1006A0000BD1491C2569002D07D05D786D015E795D
:1006B000B600AD19AD1801262E60256A85420BD112
:1006C000491CE569002D07D09D786D019E79B60023
:1006D000AD19AD1801262E60E56A85420BD1491C83
:1006E000A06A002807D0D8784001DC79A40000195E
:1006F00080180122026008060ED0587A40185872FD
:10070000587A042801DD04205872587A800018189D
:10071000C0680C49086004E0D8690A4908600420F0
:100720005872F0BC7047000000000020CC00002090
:100730008C3900002000014007000018D03900006B
:1007400000E100E024000140484200500400002085
:10075000D40000200042005010B43A48C169C905D5
:1007600004D410BC70474B7000220A700123C16989
:100770001940F6D00268D2B23349282A02D18C78C7
:10078000002CF0D08B78002B04D14B78002B01D0BB
:100790008A70EBE7292A0CD18B780C78A34208D118
:1007A00000224A708A7029490A68102313430B609B
:1007B000DCE78B780C78A34202D200224A70E7E78C
:1007C0004B78002B05D00B785C1C0C70C9180A7193
:1007D000CCE70022DCE730B587B06B4628221A70E0
:1007E000597002220C0008D08A1C6C46A41C0578A3
:1007F0002570401C641C491EF9D12920D1B25854DF
:10080000521CD2B269460F4800F0B2F807B030BDB2
:1008100010B50F4801680F4A0A4002600168C02203
:1008200012010A430260074CE1214902200000F056
:100830003BF8606801210143616080204001064966
:10084000086010BD00000540180100202C010020A8
:1008500034000050F3F3FFF300E100E0D0B40023D4
:100860000024060010000A00DA40D20707D53268DB
:100870000327A740BA430700A740174337605B1C14
:10088000A41C082BEFD3D0BC704710B48369140E9E
:100890008C401C438461C3691202120A8A401A43C5
:1008A000C26110BC70470000F8B504000D000021C3
:1008B000002003222A4E33681F0E03233B4021638E
:1008C000E260A16001D1274829E0012B23D16846CD
:1008D00033A31F680760F368300B184001D0002075
:1008E0001DE0180301D5204900E01E4988089F0338
:1008F00001D5080013E0D905C90D891C48439904A6
:10090000C90E891C6F469B0B1A40BA5C514300F01C
:1009100049F8800003E0022B01DB1448006871688D
:100920000905090F491C00F03DF80600002D16D0FE
:1009300068083018290000F035F8801E802149022F
:10094000884208D3E8003018290000F02BF800098D
:10095000801E6062F1BDC021890501436162F1BD65
:1009600014020050001BB700008051012400002039
:1009700003000020002A00D1704770B48024640571
:10098000A5009E69264003D16D1EFAD1002005E026
:100990000D781D60401C491C521EF1D170BC70477F
:1009A000010202040022030A8B420BD203098B428C
:1009B00019D243088B422ED2411A00D2014652412D
:1009C00010467047FF2209023FD012068B4205D322
:1009D000121209028B4201D31212090203098B423F
:1009E00019D300E0090AC3098B4201D3CB01C01A15
:1009F000524183098B4201D38B01C01A52414309F2
:100A00008B4201D34B01C01A524103098B4201D3DF
:100A10000B01C01A5241C3088B4201D3CB00C01A4C
:100A2000524183088B4201D38B00C01A52414308C4
:100A30008B4201D34B00C01A5241884200D3401A66
:100A40005241CFD201461046704708B5C046C04655
:100A500008BD000057485849016058494160016885
:100A6000802292050A430260810D554A1160016897
:100A70008022D2050A4302607047F8B5FFF7C8FE2E
:100A800000F0F5F8FFF71EFCFFF742FDFFF7E2FF6D
:100A9000022701244B4D05E00020FFF780FB68682A
:100AA0006040686068680028FCD02878401C287086
:100AB00068682040F0D16868384005D00120FFF711
:100AC0006EFB68687840ECE704266868304006D022
:100AD0000220FFF764FB686846406E60E2E76868E2
:100AE000000707D50320FFF75AFB6868082141403B
:100AF0006960D7E76868C00604D5FFF7BCFB686883
:100B00001021F4E768688006CCD5FFF79CFB686885
:100B10002021ECE738B5882016212B4C5922226081
:100B2000216020602368002BF9D028480168284AFA
:100B30000A400260016803220A430260254D2868CA
:100B400025490140296028680121014329600120CD
:100B500000F012F928690721884328612869286173
:100B6000286938218843286128692861A8681B49B9
:100B70000140A960A86804210143A960A868082170
:100B80000143A960A868802149020143A9606869FE
:100B900013490140696168696861686968616869E9
:100BA0006861A8690F490140A96100F0F5F80020CB
:100BB000206031BD0000014007000008804F120096
:100BC00000E100E028010020000100504400005036
:100BD000FCFCFFFF0002005000FDFFFFB2EC8C2F79
:100BE000C088FF0CF0F000FF80B5FFF793FFFFF720
:100BF00044FF002002BD000010B4022151480268E9
:100C00000A4003D0504A1368194311600121026859
:100C10000A4004D04C4A136804241C431460026840
:100C200052060ED5494A1378002B05D11170484A57
:100C300013685940116004E01178002901D00021A7
:100C400011700168016010BC704704203D490860C4
:100C50003D48016801220A430260704704203D4973
:100C600008603948016808220A4302607047F8B5F5
:100C7000394D286839490140296028682860384C76
:100C8000002204212000FFF7E9FD80225202022108
:100C90002000FFF7FAFD042732480760324E002299
:100CA00004213000FFF7DAFDBA0302213000FFF71C
:100CB000ECFD08202B49086028682C490140296078
:100CC00028682860002202212000FFF7C7FDBA0330
:100CD00001212000FFF7D9FD202022490860286863
:100CE0002349014029602868286000220121200052
:100CF000FFF7B4FDBA0300212000FFF7C6FD286806
:100D00001C490140296028682860002240212000F9
:100D1000FFF7A4FD012206212000FFF7B6FD2820E1
:100D20003064606907436761606902210143616162
:100D300060690121014361617069102101437161A2
:100D4000F1BD0000E04000502C0100201501002002
:100D500058420050604100503C000050FBFBFFFB3C
:100D6000C040005000E100E040410050FDFDFFFFA9
:100D7000FEFEFFFFBFBFFFFF0549064A13680340A1
:100D8000834203D0491EF9DA0020704701207047E2
:100D900080F520000C02005038B5684625A10A688D
:100DA00002601E4C2269200B104001D0002116E089
:100DB000100301D51A4900E01A49880893030ED49C
:100DC000D105C90D891C48439104C90E891C6B4685
:100DD0001204920F9A5C5143FFF7E4FD8100124D1B
:100DE000696020684107490F01D10E4808E00229D7
:100DF00001D1686804E0032901D10C4800E00848EB
:100E0000A1680907090F491CFFF7CCFD28600849B4
:100E100040184900FFF7C6FDA86031BD1002005020
:100E200000805101001BB70028000020102700009F
:100E300020A107000102020470B506000800002B83
:100E400006D014001D002178B047641C6D1EFAD135
:100E500070BDF8B588B0029000910392019309E04B
:100E60000123039A00990298FFF7E6FF0090039888
:100E7000401C039003980078002821D02528EFD14A
:100E8000039840780399891C03910100252812D00A
:100E9000582867D0632815D064281BD0692819D03A
:100EA0006F285FD0702864D073286AD0752859D015
:100EB000782857D0DEE70098029A90470090D9E74B
:100EC00009B0F0BD019800680168001D019A10602A
:100ED000C9B2F0E7019800680468001D0199086034
:100EE000002C04D52D210098029A90470090642090
:100EF0006F2801D1082506E020210143782901D07F
:100F00000A2500E010250B272600642803D1002CB9
:100F100001D571420E0004007F1E049730002900A5
:100F2000FFF740FD3031C8B23A2802DB20005138CB
:100F3000091805A8C0190490017030002900FFF7B6
:100F400031FD060001D0002FE6DC049C00980B2147
:100F5000CD1BB3D0029E2178B047641C6D1EFAD120
:100F60000296ABE7019909680C68091D019A1160A6
:100F7000BEE7019800680468001D019908607820A8
:100F8000B6E7019800680468001D01990860200018
:100F900000F00CF80500009890D0029E2178B04730
:100FA000641C6D1EFAD1029688E70000431C01788C
:100FB000401C0942FBD1C01A7047000010B5040064
:100FC000216800BF27A000F089F8616828A000F020
:100FD00085F8A16829A000F081F8E1682AA000F056
:100FE0007DF821692BA000F079F861692CA000F050
:100FF00075F8A1692DA000F071F8E1692EA000F04C
:101000006DF810BD10B504002EA000F067F82000A8
:10101000FFF7D4FFFEE7000004207146084202D02B
:10102000EFF3098001E0EFF308807146EAE7FEE79D
:1010300000E0000080210904094A93690B40FCD1BB
:1010400010600A2804D190690840FCD10D2010607E
:10105000704710B50400FFF7EBFF200010BD000043
:1010600000000540723020203D20307825780A00AD
:10107000723120203D20307825780A0072322020FD
:101080003D20307825780A00723320203D203078CA
:1010900025780A00723132203D20307825780A0008
:1010A0006C7220203D20307825780A007063202063
:1010B0003D20307825780A00707372203D2030780A
:1010C00025780A00496E2048617264204661756C7B
:1010D000742048616E646C65720A00000EB4C0B57D
:1010E000020003A801900020009001AB01210448F8
:1010F00078440C30FFF7ADFE029906B0084700BFF8
:101100000D01000070B40123002413E00168001DEC
:10111000194202D04D466D1E49190C60091D121F5F
:10112000042AFAD20D00960701D50C80AD1C1A4096
:1011300000D02C700268001D002AE7D170BC7047F7
:1011400030B501684118446862088A188368E4076A
:1011500004D54C461B1901E0641C06D191420BD00A
:101160000C7864B2491C0D78491C1D705B1C002C66
:10117000F2D4641EF7D5F1E70C3030BD10B5074945
:1011800079441831064C7C44163404E0081D0A6882
:10119000891888470100A142F8D110BD080000005D
:1011A0002400000061FFFFFFB40000007C0000206D
:1011B000000000008DFFFFFF920000007A00000099
:1011C000000000200120C046002801D0FFF7D6FF14
:1011D00000BF00BF002000BF00BFFFF705FD00F00B
:1011E00000F880B500F002F801BD0000074638465F
:1011F00000F002F8FBE7000080B500BF00BF024A24
:1012000011001820ABBEFBE72600020038B5050030
:101210000C00200000F006F8A04200D000252800B5
:1012200032BD000080B50249FFF713FF02BD00BFC9
:101230003400002000BF00BF00BF00BFFFF7C2FFA7
:101240000048004735120000FEE7FB0202030405D8
:10125000E30002805101FB0002805101FC001302F7
:101260000401017C000020CC0000207C0000207CD8
:10127000000020FC00037C000020FC000778000038
:071280002064000020E000E3
:0400000500001241A4
:00000001FF
