:1000000028050020FD0B0000050C0000A5050000E0
:1000100000000000000000000000000000000000E0
:10002000000000000000000000000000050C0000BF
:100030000000000000000000050C0000050C00009E
:10004000050C0000050C000091080000A30800004A
:10005000050C000065080000050C0000050C000000
:100060000D09000017010000050C0000050C000040
:10007000CD090000050C0000050C0000050C000077
:10008000050C0000050C0000050C0000050C00002C
:10009000050C0000050C0000050C0000050C00001C
:1000A000050C0000050C0000050C0000050C00000C
:1000B000050C0000050C0000050C0000050C0000FC
:1000C00070B400248D4802000C32611C04290EDA41
:1000D000A300C318103304252C1B641E15681E686A
:1000E000AE4201D216601D601B1D641EF6D10C00CD
:1000F000121D042CE9DB70BC704780B57F48804935
:100100008A68C2604A6902610A6A4261C96A816199
:10011000FFF7D6FF01BDF8B57A4F01247C60774D1B
:10012000687A042835D1002675484168002901D035
:1001300075490E600169002901D073494E60C1699B
:10014000002901D070498E60806A002801D06E4875
:10015000C66000F027F8E868002807D06E72280013
:100160000C30697A8900405838600BE00126286914
:100170000028F3D1022668690028EFD10326A86978
:100180000028EBD1687A04280BD16872E8693860DE
:10019000F1BD28000C30697A8900405880B200F027
:1001A00052F8F1BDF8B500200024544B574A584985
:1001B0000125A540514E377A2F4239D008680F1FCC
:1001C0003F68B842086801D23A3005E00F1F3F6827
:1001D000874202D208683A38086008680F1F3F68F3
:1001E000874224D1307AA843307208000838057855
:1001F000002D0CD100200D1F286008601D786D01B6
:100200001678B600AD19434EAD1928600FE000789E
:10021000FF280CD100200D1F2860086018784001CD
:100220001578AD0040193B4D4019012505600120AE
:10023000641C0C31521C5B1C042CB9DB002801D05F
:10024000FFF75BFFF1BDF0B40021324A2B4B2C4C81
:10025000A56885420BD1012501216668002E06D0D4
:100260001E7876011F79BF00F619B61835606569EA
:1002700085420BD1491C2569002D07D05D786D01A1
:100280005E79B600AD19AD1801262E60256A85424B
:100290000BD1491CE569002D07D09D786D019E7931
:1002A000B600AD19AD1801262E60E56A85420BD166
:1002B000491CA06A002807D0D8784001DC79A40046
:1002C000001980180122026008060ED0587A4018E2
:1002D0005872587A042801DD04205872587A800038
:1002E0001818C0680749086004E0D8690549086023
:1002F00004205872F0BC704700000000000000208D
:10030000C8000020240001404842005004000020A2
:10031000D00000200042005070B506000800002BFD
:1003200006D014001D002178B047641C6D1EFAD160
:1003300070BDF8B588B0029000910392019309E076
:100340000123039A00990298FFF7E6FF00900398B3
:10035000401C039003980078002821D02528EFD175
:10036000039840780399891C03910100252812D035
:10037000582867D0632815D064281BD0692819D065
:100380006F285FD0702864D073286AD0752859D040
:10039000782857D0DEE70098029A90470090D9E776
:1003A00009B0F0BD019800680168001D019A106055
:1003B000C9B2F0E7019800680468001D019908605F
:1003C000002C04D52D210098029A904700906420BB
:1003D0006F2801D1082506E020210143782901D0AA
:1003E0000A2500E010250B272600642803D1002CE5
:1003F00001D571420E0004007F1E049730002900D1
:1004000000F043F83031C8B23A2802DB20005138FE
:10041000091805A8C019049001703000290000F0E7
:1004200034F8060001D0002FE6DC049C00980B2174
:10043000CD1BB3D0029E2178B047641C6D1EFAD14B
:100440000296ABE7019909680C68091D019A1160D1
:10045000BEE7019800680468001D019908607820D3
:10046000B6E7019800680468001D01990860200043
:1004700000F062F80500009890D0029E2178B04705
:10048000641C6D1EFAD1029688E70022030A8B4293
:100490000BD203098B4219D243088B422ED2411A48
:1004A00000D20146524110467047FF2209023FD058
:1004B00012068B4205D3121209028B4201D312128B
:1004C000090203098B4219D300E0090AC3098B42D0
:1004D00001D3CB01C01A524183098B4201D38B0156
:1004E000C01A524143098B4201D34B01C01A5241F9
:1004F00003098B4201D30B01C01A5241C3088B423E
:1005000001D3CB00C01A524183088B4201D38B0028
:10051000C01A524143088B4201D34B00C01A5241CA
:10052000884200D3401A5241CFD20146104670474C
:1005300008B5C046C04608BD431C0178401C0942AE
:10054000FBD1C01A7047000010B50400216800BF3D
:1005500027A000F089F8616828A000F085F8A1685C
:1005600029A000F081F8E1682AA000F07DF8216957
:100570002BA000F079F861692CA000F075F8A16952
:100580002DA000F071F8E1692EA000F06DF810BD0B
:1005900010B504002EA000F067F82000FFF7D4FF8C
:1005A000FEE7000004207146084202D0EFF3098004
:1005B00001E0EFF308807146EAE7FEE700E00000A3
:1005C00080210904094A93690B40FCD110600A2874
:1005D00004D190690840FCD10D201060704710B51F
:1005E0000400FFF7EBFF200010BD000000000540F5
:1005F000723020203D20307825780A00723120208A
:100600003D20307825780A00723220203D20307855
:1006100025780A00723320203D20307825780A00A2
:10062000723132203D20307825780A006C7220200B
:100630003D20307825780A00706320203D203078F6
:1006400025780A00707372203D20307825780A00E2
:10065000496E2048617264204661756C742048615F
:100660006E646C65720A00000EB4C0B5020003A887
:1006700001900020009001AB0121044878440C3027
:10068000FFF757FE029906B0084700BF3D0500007E
:100690003748384901603849416001688022920535
:1006A0000A430260810D354A116001688022D2053B
:1006B0000A430260704738B588201621314C592210
:1006C0002260216020602368002BF9D02E48016849
:1006D0002E4A0A400260016803220A4302602C4D40
:1006E00028682C49014029602868012101432960BC
:1006F000012000F057F828690721884328612869FC
:100700002861286938218843286128692861A868F8
:1007100021490140A960A86804210143A960A86893
:1007200008210143A960A868802149020143A9600A
:1007300068691A4901406961686968616869686146
:1007400068696861A86916490140A96100F03AF832
:100750000020206031BD80B5FFF7ADFF00F0AAF8A2
:1007600000F0EFF8FFF794FF05480168FDE700008F
:10077000000001400700000860EA000000E100E01E
:10078000240100200001005044000050FCFCFFFF49
:100790000002005000FDFFFFB2EC8C2FC088FF0C60
:1007A000F0F000FF0549064A13680340834203D076
:1007B000491EF9DA002070470120704780F52000BB
:1007C0000C02005038B5684625A10A6802601E4C2C
:1007D0002269200B104001D0002116E0100301D542
:1007E0001A4900E01A49880893030ED4D105C90DAF
:1007F000891C48439104C90E891C6B461204920F50
:100800009A5C5143FFF741FE8100124D69602068F8
:100810004107490F01D10E4808E0022901D168685B
:1008200004E0032901D10C4800E00848A168090749
:10083000090F491CFFF729FE2860084940184900A4
:10084000FFF723FEA86031BD100200500080510167
:10085000001BB700240000201027000020A1070083
:10086000010202041F480121026C0A4008D01E4AFE
:100870001378002B04D111701C4A13685940116081
:10088000016C01640168016080300168016070479B
:100890000420174908601748016801220A430260D2
:1008A00070470420144908601248016808220A436E
:1008B0000260704710B511480168114A0A40026091
:1008C000016801600F4C00220121200000F058F85F
:1008D00001220021200000F06AF820200A49086067
:1008E00010BD0000A04000501101002058420050EF
:1008F000E040005024010020604100503C000050C6
:10090000FEFEFFFFC040005000E100E080B5012086
:10091000154908601348C17D00290BD0017E491C90
:100920000176017EC82905DB00210176817D0C302E
:1009300000F08BF80D480178002901D000210170EA
:1009400001BD80B50A4801680A4A0A400260016890
:10095000016001224021084800F012F800200749F8
:10096000086001BDF80000200800014011010020CE
:1009700038000050BFBFFFFF804000505842005079
:10098000D0B400230024060010000A00DA40D20789
:1009900007D532680327A740BA430700A74017438B
:1009A00037605B1CA41C082BEFD3D0BC704710B47D
:1009B0008369140E8C401C438461C3691202120ABD
:1009C0008A401A43C26110BC7047000010B42D4821
:1009D000C169C90504D410BC70474B7000220A706D
:1009E0000123C1691940F6D00268D2B22649282AEB
:1009F00002D18C78002CF0D08B78002B04D14B786E
:100A0000002B01D08A70EBE7292A0CD18B780C7867
:100A1000A34208D100224A708A701C490A68102338
:100A200013430B60DCE78B780C78A34202D20022E0
:100A30004A70E7E74B78002B05D00B785C1C0C70F4
:100A4000C9180A71CCE70022DCE730B587B06B46E5
:100A500028221A70597002220C0008D08A1C6C4699
:100A6000A41C05782570401C641C491EF9D129205E
:100A7000D1B25854521CD2B26946024800F008F86C
:100A800007B030BD00000540140100202401002003
:100A900003000020002A00D1704770B48024640550
:100AA000A5009E69264003D16D1EFAD1002005E005
:100AB0000D781D60401C491C521EF1D170BC70475E
:100AC00070B40123002413E00168001D194202D014
:100AD0004D466D1E49190C60091D121F042AFAD2D9
:100AE0000D00960701D50C80AD1C1A4000D02C706B
:100AF0000268001D002AE7D170BC704730B501685C
:100B00004118446862088A188368E40704D54C4693
:100B10001B1901E0641C06D191420BD00C7864B221
:100B2000491C0D78491C1D705B1C002CF2D4641EFE
:100B3000F7D5F1E70C3030BD10B5074979441831CD
:100B4000064C7C44163404E0081D0A68891888475E
:100B50000100A142F8D110BD0800000024000000EF
:100B600061FFFFFFB00000007800002000000000DF
:100B70008DFFFFFF920000006E00000000000020CB
:100B80000120C046002801D0FFF7D6FF00BF00BFFC
:100B9000002000BF00BFFFF7DEFD00F000F880B5C9
:100BA00000F002F801BD00000746384600F002F8E8
:100BB000FBE7000080B500BF00BF024A110018200B
:100BC000ABBEFBE72600020038B505000C00200094
:100BD00000F006F8A04200D00025280032BD000039
:100BE00080B50249FFF7FBFC02BD00BF30000020CA
:100BF00000BF00BF00BF00BFFFF7C2FF00480047B3
:100C0000F10B0000FEE7FB0202030405DF00028097
:100C10005101FC00130204010178000020C800000B
:100C2000207800002078000020FC000378000020DD
:0D0C3000FC00077400002060000020E000C0
:0400000500000BFDEF
:00000001FF
