:10000000E80400206912000071120000691000006D
:1000100000000000000000000000000000000000E0
:10002000000000000000000000000000711200004D
:1000300000000000000000007112000071120000BA
:1000400071120000711200007112000071120000A4
:1000500071120000CD00000071120000711200004A
:10006000C100000071120000711200007112000046
:10007000D70100007112000071120000711200001F
:100080007112000071120000711200007112000064
:100090007112000071120000711200007112000054
:1000A0007112000071120000711200007112000044
:1000B0007112000071120000711200007112000034
:1000C0000120954A107095490860704738B5924DE7
:1000D000287800281BD092480168CA430260082291
:1000E000291D904800F040FA8F4C0A220021200080
:1000F00000F054FA20688021C9050143216020687E
:100100008021890501432160A00D88490860B84815
:10011000016801600020287031BD38B588201621A3
:10012000834C59222260216020602368002BF9D083
:1001300080480168804A0A400260016803220A433D
:1001400002607E4D28687E490140296028680121AF
:1001500001432960012000F0DFFA28690721884364
:10016000286128692861286938218843286128691D
:100170002861A8689F490140A960A868042101433B
:10018000A960A868802149020143A960A86880216C
:1001900049030143A9606869974901406961686939
:1001A000686168696861A86994490140A96100F0C3
:1001B000C3FA934D3223934A0021280000F00CFB30
:1001C0000121280000F09EFB0121280000F083FBA4
:1001D0000020206031BD10B45248C169C90504D463
:1001E00010BC70478B7000224A700123C16919400E
:1001F000F6D00268D2B28449282A02D1CC78002CE9
:10020000F0D0CB78002B05D18B78002B02D0521E7A
:10021000CA70EAE7292A09D1CB784C78A34205D1E4
:1002200000228A70CA704A780A70DEE7CB784C7870
:10023000A34202D200228A70EAE78B78002B05D015
:100240004B785C1C4C707149CA54CEE70022DFE742
:10025000F8B56FA6300000F067FB00BF7AA000F091
:1002600063FB6C4C0C256CA72178380000F05CFB1C
:100270006AA000F059FB641C6D1EF5D1300000F03F
:1002800053FBF1BDFEB50121604A20230093137892
:10029000442B13D0012901D1107814E0022901D197
:1002A000177810E0032901D116780CE0042901D158
:1002B000157808E0052906D1147804E01378442B5A
:1002C00001D1491CC9B2521C009B5B1E0093DED1B8
:1002D00069460871E0B20090EBB2F2B2F9B268463A
:1002E000007900F0F2FB6846017900BF5DA000F0E4
:1002F0001BFBF9B25EA000F017FBF1B25FA000F0AB
:1003000013FBE9B260A000F00FFBE1B261A000F0C6
:100310000BFB03B0F0BD000000000020080001400E
:100320004C420050000005400000014000E100E0A8
:100330000001005044000050FCFCFFFF0002005090
:1003400000FDFFFFF8B5FFF7E8FE354C20683549A2
:10035000014021602068C021090101432160324D24
:10036000E1214902280000F09BF80126686830432B
:10037000686030032D490860A0682D490140A160E4
:10038000A068A060012204212A4800F0C5FB2A4F82
:100390000020F86160682949014061606068606020
:1003A000274D01220821280000F0B6FB3E6060685E
:1003B00024490140616060686060002210212800CB
:1003C00000F0AAFB32040421280000F0BCFB20202E
:1003D000164908600C4C20780028FCD000202070C2
:1003E000FFF750FFFFF734FF00F0E0FBF3E70000FA
:1003F000A0400050B2EC8C2FC088FF0CF0F000FF42
:100400000000044070940000E0000020B4000020D0
:1004100000000000D400002025780000200000002B
:1004200034000050F3F3FFF30000054000E100E06A
:10043000FBFBFFFBC04000504C420050F7F7FFFFB2
:1004400080400050EFEFFFFF4465636F64656420F8
:1004500072656D6F7465207369676E616C20697376
:100460003A0000000A54656D703A202564200A00A5
:1004700046616E3A202564200A0000004853573A2E
:10048000202564200A0000005673773A2025642056
:100490000A0000006D6F64653A202564200A0000A0
:1004A000F8B504000D000021002003222A4E336815
:1004B0001F0E03233B402163E260A16001D1274866
:1004C00029E0012B23D1684633A31F680760F36836
:1004D000300B184001D000201DE0180301D5204941
:1004E00000E01E4988089F0301D5080013E0D905E4
:1004F000C90D891C48439904C90E891C6F469B0B82
:100500001A40BA5C514300F097FB800003E0022BD5
:1005100001DB1448006871680905090F491C00F0E7
:100520008BFB0600002D16D068083018290000F05B
:1005300083FB801E80214902884208D3E8003018DE
:10054000290000F079FB0009801E6062F1BDC02126
:10055000890501436162F1BD14020050001BB70020
:10056000008051010C00002003000020002A00D16F
:10057000704770B480246405A5009E69264003D1AD
:100580006D1EFAD1002005E00D781D60401C491C4D
:10059000521EF1D170BC704701020204F0B5040094
:1005A0000D00110055480722554B9C42436901D16B
:1005B0001B0A00E01B0B1A4009D100688007800F5E
:1005C000012801D14F4E0CE08026360209E0012AB5
:1005D00001D14D4E05E0022A01D14C4800E04C48C3
:1005E000066800277008884201D202210FE08022AD
:1005F0009204964202D30327B60804E052089642BA
:1006000001D301270600300000F016FB01003D4336
:100610002560616030007F1C794300F00DFBF0BD68
:10062000F1B50C0000F048F807008026F6053748C1
:100630000068390000F000FB050000200099086008
:10064000009948613048874207D163342000642113
:1006500000F0F2FA6421484312E0093420000A2134
:1006600000F0EAFA81000818400071098F4202D3B5
:10067000F61CBF0804E049088F4201D3761C7F08AE
:1006800000F032FB0400380000F02EFB210000F0E7
:100690003BFB204900F090FB00F0E4FB0099486030
:1006A00000980660002D02D000BF6D1EFCD100989E
:1006B00000688001FBD4F1BD10490722104B98421D
:1006C000486901D1000A00E0000B024009D1086826
:1006D0008007800F012801D10A487047802000025E
:1006E0007047012A01D108487047022A01D1074802
:1006F00000E007480068704700000000000200505A
:1007000000000140001BB70010270000100000206F
:100710000C000020002474490549064A1368034070
:10072000834203D0491EF9DA002070470120704748
:1007300080F520000C02005038B5684625A10A68F3
:1007400002601E4C2269200B104001D0002116E0EF
:10075000100301D51A4900E01A49880893030ED402
:10076000D105C90D891C48439104C90E891C6B46EB
:100770001204920F9A5C514300F05EFA8100124D10
:10078000696020684107490F01D10E4808E002293D
:1007900001D1686804E0032901D10C4800E0084851
:1007A000A1680907090F491C00F046FA28600849AA
:1007B0004018490000F040FAA86031BD1002005016
:1007C00000805101001BB70010000020102700001E
:1007D00020A1070001020204FBB584B0110001262C
:1007E000FF274B4D4B480068009000F025FA03901E
:1007F000A81C0290484801900398310000F01CFAB0
:10080000019988420BD241190F023F0E022F00DCE2
:100810000227390000F010FA0299884213D37606B5
:10082000360E112EE8DB009839007143AAB251430D
:1008300000F002FA00907F1E01976D1EADB2012EEE
:1008400007D1042112E0012801D10125EBE70500C1
:10085000E9E7022E01D1002108E0042E01D1012197
:1008600004E0082E01D1022100E00321059A049C36
:100870005008C600294B1868FF27B740B843019FAE
:10088000FFB2BC4637006646BE4006431E6090007D
:100890005E6807278740BE438140314359609968AD
:1008A00049004908082686400E439E6096002000B5
:1008B000243087190698002805D0691C4843642114
:1008C00000F0BAF9401E386020000C308019056035
:1008D000009807B0F0BD30B40020002200230124AE
:1008E0000D00D540254003D0050001209840284345
:1008F000521C1B1D062AF3D309490A6810430860DD
:1009000030BC70470748026811430160704700001F
:10091000FFFF000010000020010000010000044063
:10092000080004405C0004400EB4C0B5020003A8F7
:1009300001900020009001AB0121044878440C3064
:1009400000F0B0FA029906B0084700BFE9080000BD
:10095000F8B400236D4C0B25002226786F463E70BC
:100960006E46377801269640374205D00726B61ADC
:100970000127B7401F433B00521C082AF0DB2370BD
:100980000023641C6D1EE7D1F1BC7047604A00284B
:1009900003D07F209071802002E0FF209071002022
:1009A000D071002905D0107A10381072507A1030AA
:1009B0005072704756490F220A7200224A7201286B
:1009C00002D1FF2008727047022803D17F200872ED
:1009D00080200AE0032803D19F200872602004E0F1
:1009E000042803D1BF20087240204872704710B419
:1009F0000F2247498B7A13408B72CC7A2240CA72FD
:100A0000E0241C438C7210231343CB7212228242C7
:100A100008D08B7A103B8B72CB7A1033CB72521C7E
:100A20001F2AF4DB10BC704710B4F02338498A7ACF
:100A30001A408A72CC7A2340CB72012805D1272034
:100A40008872D820C87201201AE0022807D1062037
:100A50001043887209201843C872022010E003284E
:100A600005D102438A720C221A43CA7208E0042894
:100A700009D10520104388720A201843C872042047
:100A8000244908701FE005281DD12248007801285C
:100A900003D10F201043887215E0022804D10E20E4
:100AA0001043887201200CE0032804D10B2010436E
:100AB0008872042005E0042805D10D2010438872B7
:100AC00002201843C87210BC7047F8B50E0017001A
:100AD000069C0F4D52216970AE21A970C321E970A7
:100AE00026212971D9216971FFF781FF3000FFF7B5
:100AF00061FF684601783800FFF748FF2000FFF7E4
:100B000093FFFFF725FF58202870F1BDD500002086
:100B1000D4000020E4000020D0B40023002406000C
:100B200010000A00DA40D20707D532680327A74031
:100B3000BA430700A740174337605B1CA41C082B6F
:100B4000EFD3D0BC704710B48369140E8C401C43A3
:100B50008461C3691202120A8A401A43C26110BC3E
:100B60007047000080B52D4801682D4A0A40026098
:100B700001680160012204212A48FFF7CDFF00200F
:100B80002949086001BD10B58020C00023490860D4
:100B9000264CC62109012000FFF742FDFFF7E2FFC6
:100BA0008E2189002000FFF73BFD10BDF8B5FFF74F
:100BB000EAFF204E0B201D4C0090270D07253078B2
:100BC000E840C0070AD515480760C5214900200044
:100BD000FFF726FDFFF7C6FF15490AE00F4807603B
:100BE000CB2149002000FFF71BFDFFF7BBFFBF2112
:100BF00049002000FFF714FD6D1EE0D5761C00981B
:100C0000401E0090DAD105480760CB214900200042
:100C1000FFF706FDFFF7A6FFF1BD0000380000500A
:100C2000FBFBFFFF804000504842005000000140A5
:100C30009C040000D50000200022030A8B420BD246
:100C400003098B4219D243088B422ED2411A00D29B
:100C50000146524110467047FF2209023FD012065A
:100C60008B4205D3121209028B4201D312120902E0
:100C700003098B4219D300E0090AC3098B4201D34F
:100C8000CB01C01A524183098B4201D38B01C01A98
:100C9000524143098B4201D34B01C01A524103090F
:100CA0008B4201D30B01C01A5241C3088B4201D3BE
:100CB000CB00C01A524183088B4201D38B00C01A6B
:100CC000524143088B4201D34B00C01A5241884223
:100CD00000D3401A5241CFD201461046704708B5A2
:100CE000C046C04608BD00009D2102000AD002D4C3
:100CF000491E9218FCD5C905100A1206524100D3AC
:100D0000012A48417047000030B405004D400122DF
:100D1000D20715404B180418240E2ED01B0E32D0CB
:100D2000FF2C34D0FF2B3AD0E41800020902104304
:100D30001143000A090A9446C2B24A43000AC3B2E8
:100D40004B43000A4843110A5B181A43D2B2190AEE
:100D5000091801D44918641E080A7F3C23DBFE2CC5
:100D600008DAE405090611436346994160412843C6
:100D700030BC7047FF20C005F9E728001B0EFF2B91
:100D8000F6D1D043F4E72800FF2CF1D1F9E7400277
:100D9000F7D1FF2B01D14902F3D1E005E7E7D805F0
:100DA0004902E4D0EDE743020020641CDFD15B126E
:100DB0009B1CDCD9D805DAE730B405004D40012290
:100DC000D20715404B180418240E28D01B0E2FD024
:100DD000FF2C34D0FF2B37D0E41A00020902104355
:100DE000114343084808D10D1B1A02D2641EDB18B8
:100DF0001B18DB18834200D31B1A4941F9D37F34F7
:100E000026DDFE2C08DAE4054808C907194391419C
:100E10006041284330BC7047FF20C005F9E7280037
:100E20001B0E03D0FF2BF5D14902F3D0D043F1E7DD
:100E3000FF2C01D14002F9D1FF20C005E9E74002B3
:100E4000F4D1FF2BF8D1F1E728004902E2D0EDE719
:100E50000B0200202442DCD15B129B1CD9D9D8059F
:100E6000D7E7000000180ED2010E7F390BD449429B
:100E70001F3105D4C0010122D2071043C84070477A
:100E80000020401E70470020704770B50600080023
:100E9000002B06D014001D002178B047641C6D1E85
:100EA000FAD170BDF8B588B0029000910392019319
:100EB00009E00123039A00990298FFF7E6FF0090EA
:100EC0000398401C039003980078002821D025281F
:100ED000EFD1039840780399891C039101002528DC
:100EE00012D0582867D0632815D064281BD06928F1
:100EF00019D06F285FD0702864D073286AD0752805
:100F000059D0782857D0DEE70098029A9047009091
:100F1000D9E709B0F0BD019800680168001D019A89
:100F20001060C9B2F0E7019800680468001D0199DB
:100F30000860002C04D52D210098029A904700905B
:100F400064206F2801D1082506E02021014378297B
:100F500001D00A2500E010250B272600642803D1C4
:100F6000002C01D571420E0004007F1E0497300052
:100F70002900FFF761FE3031C8B23A2802DB2000B9
:100F80005138091805A8C0190490017030002900D3
:100F9000FFF752FE060001D0002FE6DC049C00980B
:100FA0000B21CD1BB3D0029E2178B047641C6D1E6F
:100FB000FAD10296ABE7019909680C68091D019AFC
:100FC0001160BEE7019800680468001D019908607F
:100FD0007820B6E7019800680468001D0199086050
:100FE000200000F00BF80500009890D0029E2178B8
:100FF000B047641C6D1EFAD1029688E7431C017845
:10100000401C0942FBD1C01A7047000010B5040013
:10101000216800BF27A0FFF787FC616828A0FFF7C1
:1010200083FCA16829A0FFF77FFCE1682AA0FFF7F5
:101030007BFC21692BA0FFF777FC61692CA0FFF7EF
:1010400073FCA1692DA0FFF76FFCE1692EA0FFF7EB
:101050006BFC10BD10B504002EA0FFF765FC20004E
:10106000FFF7D4FFFEE7000004207146084202D0DB
:10107000EFF3098001E0EFF308807146EAE7FEE74D
:1010800000E0000080210904094A93690B40FCD16B
:1010900010600A2804D190690840FCD10D2010602E
:1010A000704710B50400FFF7EBFF200010BD0000F3
:1010B00000000540723020203D20307825780A005D
:1010C000723120203D20307825780A0072322020AD
:1010D0003D20307825780A00723320203D2030787A
:1010E00025780A00723132203D20307825780A00B8
:1010F0006C7220203D20307825780A007063202013
:101100003D20307825780A00707372203D203078B9
:1011100025780A00496E2048617264204661756C2A
:10112000742048616E646C65720A000070B401231B
:10113000002413E00168001D194202D04D466D1EC7
:1011400049190C60091D121F042AFAD20D009607D6
:1011500001D50C80AD1C1A4000D02C700268001D17
:10116000002AE7D170BC704730B501684118446867
:1011700062088A188368E40704D54C461B1901E00D
:10118000641C06D191420BD00C7864B2491C0D78D6
:10119000491C1D705B1C002CF2D4641EF7D5F1E7CE
:1011A0000C3030BD10B5074979441831064C7C44E9
:1011B000163404E0081D0A68891888470100A14216
:1011C000F8D110BD080000002400000061FFFFFFFF
:1011D0008400000064000020000000008DFFFFFF7D
:1011E0009200000084000000000000200120C046A2
:1011F000002801D0FFF7D6FF00BF00BF002000BFCE
:1012000000BFFFF79FF800F000F880B500F002F88B
:1012100001BD00000746384600F002F8FBE7000079
:1012200080B500BF00BF024A11001820ABBEFBE72B
:101230002600020038B505000C00200000F006F87A
:10124000A04200D00025280032BD000080B5024930
:10125000FFF727FF02BD00BF1C00002000BF00BF3A
:1012600000BF00BFFFF7C2FF004800475D1200004B
:10127000FEE70001FD000B546F67676C65640A00B0
:10128000805101FB0002805101FC001302040101A6
:1012900064000020B40000206400002064000020EE
:1012A000FC000364000020FC0007600000204C00EC
:0412B0000020E0003A
:04000005000012697C
:00000001FF
