:10000000B0040020C10A0000C90A000099080000DD
:1000100000000000000000000000000000000000E0
:10002000000000000000000000000000C90A0000FD
:100030000000000000000000C90A0000C90A00001A
:10004000C90A0000C90A0000C90A0000C90A000064
:10005000C90A0000C90A0000C90A0000C90A000054
:10006000C90A0000C90A0000C90A0000C90A000044
:10007000C90A0000C90A0000C90A0000C90A000034
:10008000C90A0000C90A0000C90A0000C90A000024
:10009000C90A0000C90A0000C90A0000C90A000014
:1000A000C90A0000C90A0000C90A0000C90A000004
:1000B000C90A0000C90A0000C90A0000C90A0000F4
:1000C00038B588201621594C5922226021602060C1
:1000D0002368002BF9D0C046C04655480168554AF0
:1000E0000A400260016803220A430260524D2868F8
:1000F00052490140296028680121014329600120FB
:1001000000F0BEF828690721884328612869286122
:10011000286938218843286128692861A8684849E6
:100120000140A960A86804210143A96068694549A4
:100130000140696168696861A86943490140A96132
:1001400000F0AEF80020206031BDF8B5FFF7B8FF31
:100150003E4CA0683E490140A160A068A060012219
:1001600008213C4800F0ECF801263B4DAE643B4FC3
:10017000A0683840A060A068A06000221021354827
:1001800000F0DEF820680740276020682060344FC8
:1001900001221021380000F0D3F8EE6020683149C8
:1001A000014021602068206001222021380000F0F9
:1001B000C7F82E6120682C4901402160206820602A
:1001C00001224021380000F0BBF86E612068274909
:1001D000014021602068206001228021380000F069
:1001E000AFF8AE612068224901402160206820609C
:1001F00001220221380000F0A3F82E600027EF60F2
:100200002E616E61AE61AF641A4C03E00120207074
:100210002078A864E86C0028FCD11749174800F042
:10022000A7F820780128F1D10020F0E70001005064
:1002300044000050FCFCFFFF0002005000FDFFFFE7
:10024000B2EC8C2FC088FF0CF0F000FF30000050A3
:10025000F7F7FFFF8040005004420050EFEFFFFF30
:1002600000400050DFDFFFFFBFBFFFFF7F7FFFFFCA
:10027000FDFDFFFF5800002040420F00000001403C
:100280000549064A13680340834203D0491EF9DA40
:10029000002070470120704780F520000C020050BC
:1002A00038B5684625A10A6802601E4C2269200BF9
:1002B000104001D0002116E0100301D51A4900E0DA
:1002C0001A49880893030ED4D105C90D891C4843E7
:1002D0009104C90E891C6B461204920F9A5C51431B
:1002E00000F0C2F88100124D696020684107490F93
:1002F00001D10E4808E0022901D1686804E0032911
:1003000001D10C4800E00848A1680907090F491C01
:1003100000F0AAF8286008494018490000F0A4F845
:10032000A86031BD1002005000805101001BB700D1
:10033000040000201027000020A107000102020491
:10034000D0B400230024060010000A00DA40D207CF
:1003500007D532680327A740BA430700A7401743D1
:1003600037605B1CA41C082BEFD3D0BC7047000087
:10037000F1B50C0000F048F807008026F605374874
:100380000068390000F070F805000020009908604E
:10039000009948613048874207D1633420006421C6
:1003A00000F062F86421484312E0093420000A2179
:1003B00000F05AF881000818400071098F4202D3FA
:1003C000F61CBF0804E049088F4201D3761C7F0861
:1003D00000F0A2F80400380000F09EF8210000F0C0
:1003E000ABF8204900F000F900F054F9009948609A
:1003F00000980660002D02D000BF6D1EFCD1009851
:1004000000688001FBD4F1BD10490722104B9842CF
:10041000486901D1000A00E0000B024009D10868D8
:100420008007800F012801D10A4870478020000210
:100430007047012A01D108487047022A01D10748B4
:1004400000E007480068704700000000000200500C
:1004500000000140001BB70010270000040000202E
:1004600000000020002474490022030A8B420BD2B2
:1004700003098B4219D243088B422ED2411A00D273
:100480000146524110467047FF2209023FD0120632
:100490008B4205D3121209028B4201D312120902B8
:1004A00003098B4219D300E0090AC3098B4201D327
:1004B000CB01C01A524183098B4201D38B01C01A70
:1004C000524143098B4201D34B01C01A52410309E7
:1004D0008B4201D30B01C01A5241C3088B4201D396
:1004E000CB00C01A524183088B4201D38B00C01A43
:1004F000524143088B4201D34B00C01A52418842FB
:1005000000D3401A5241CFD201461046704708B579
:10051000C046C04608BD00009D2102000AD002D49A
:10052000491E9218FCD5C905100A1206524100D383
:10053000012A48417047000030B405004D400122B7
:10054000D20715404B180418240E2ED01B0E32D0A3
:10055000FF2C34D0FF2B3AD0E418000209021043DC
:100560001143000A090A9446C2B24A43000AC3B2C0
:100570004B43000A4843110A5B181A43D2B2190AC6
:10058000091801D44918641E080A7F3C23DBFE2C9D
:1005900008DAE4050906114363469941604128439E
:1005A00030BC7047FF20C005F9E728001B0EFF2B69
:1005B000F6D1D043F4E72800FF2CF1D1F9E740024F
:1005C000F7D1FF2B01D14902F3D1E005E7E7D805C8
:1005D0004902E4D0EDE743020020641CDFD15B1246
:1005E0009B1CDCD9D805DAE730B405004D40012268
:1005F000D20715404B180418240E28D01B0E2FD0FC
:10060000FF2C34D0FF2B37D0E41A0002090210432C
:10061000114343084808D10D1B1A02D2641EDB188F
:100620001B18DB18834200D31B1A4941F9D37F34CE
:1006300026DDFE2C08DAE4054808C9071943914174
:100640006041284330BC7047FF20C005F9E728000F
:100650001B0E03D0FF2BF5D14902F3D0D043F1E7B5
:10066000FF2C01D14002F9D1FF20C005E9E740028B
:10067000F4D1FF2BF8D1F1E728004902E2D0EDE7F1
:100680000B0200202442DCD15B129B1CD9D9D80577
:10069000D7E7000000180ED2010E7F390BD4494273
:1006A0001F3105D4C0010122D2071043C840704752
:1006B0000020401E70470020704770B506000800FB
:1006C000002B06D014001D002178B047641C6D1E5D
:1006D000FAD170BDF8B588B00290009103920193F1
:1006E00009E00123039A00990298FFF7E6FF0090C2
:1006F0000398401C039003980078002821D02528F7
:10070000EFD1039840780399891C039101002528B3
:1007100012D0582867D0632815D064281BD06928C8
:1007200019D06F285FD0702864D073286AD07528DC
:1007300059D0782857D0DEE70098029A9047009069
:10074000D9E709B0F0BD019800680168001D019A61
:100750001060C9B2F0E7019800680468001D0199B3
:100760000860002C04D52D210098029A9047009033
:1007700064206F2801D1082506E020210143782953
:1007800001D00A2500E010250B272600642803D19C
:10079000002C01D571420E0004007F1E049730002A
:1007A0002900FFF761FE3031C8B23A2802DB200091
:1007B0005138091805A8C0190490017030002900AB
:1007C000FFF752FE060001D0002FE6DC049C0098E3
:1007D0000B21CD1BB3D0029E2178B047641C6D1E47
:1007E000FAD10296ABE7019909680C68091D019AD4
:1007F0001160BEE7019800680468001D0199086057
:100800007820B6E7019800680468001D0199086027
:10081000200000F00BF80500009890D0029E21788F
:10082000B047641C6D1EFAD1029688E7431C01781C
:10083000401C0942FBD1C01A7047000010B50400EB
:10084000216800BF27A000F089F8616828A000F0A7
:1008500085F8A16829A000F081F8E1682AA000F0DD
:100860007DF821692BA000F079F861692CA000F0D7
:1008700075F8A1692DA000F071F8E1692EA000F0D3
:100880006DF810BD10B504002EA000F067F8200030
:10089000FFF7D4FFFEE7000004207146084202D0B3
:1008A000EFF3098001E0EFF308807146EAE7FEE725
:1008B00000E0000080210904094A93690B40FCD143
:1008C00010600A2804D190690840FCD10D20106006
:1008D000704710B50400FFF7EBFF200010BD0000CB
:1008E00000000540723020203D20307825780A0035
:1008F000723120203D20307825780A007232202085
:100900003D20307825780A00723320203D20307851
:1009100025780A00723132203D20307825780A008F
:100920006C7220203D20307825780A0070632020EA
:100930003D20307825780A00707372203D20307891
:1009400025780A00496E2048617264204661756C02
:10095000742048616E646C65720A00000EB4C0B504
:10096000020003A801900020009001AB012104487F
:1009700078440C30FFF7AEFE029906B0084700BF7E
:100980000D01000070B40123002413E00168001D74
:10099000194202D04D466D1E49190C60091D121FE7
:1009A000042AFAD20D00960701D50C80AD1C1A401E
:1009B00000D02C700268001D002AE7D170BC70477F
:1009C00030B501684118446862088A188368E407F2
:1009D00004D54C461B1901E0641C06D191420BD092
:1009E0000C7864B2491C0D78491C1D705B1C002CEE
:1009F000F2D4641EF7D5F1E70C3030BD10B50749CD
:100A000079441831064C7C44163404E0081D0A6809
:100A1000891888470100A142F8D110BD08000000E4
:100A20002400000061FFFFFF500000005C00002078
:100A3000000000008DFFFFFF92000000700000002A
:100A4000000000200120C046002801D0FFF7D6FF9B
:100A500000BF00BF002000BF00BFFFF776FB00F023
:100A600000F880B500F002F801BD000007463846E6
:100A700000F002F8FBE7000080B500BF00BF024AAB
:100A800011001820ABBEFBE72600020038B50500B8
:100A90000C00200000F006F8A04200D0002528003D
:100AA00032BD000080B50249FFF713FF02BD00BF51
:100AB0001000002000BF00BF00BF00BFFFF7C2FF53
:100AC00000480047B50A0000FEE70300805101FB23
:100AD0000002805101FC0013020401015C000020AF
:100AE000AC0000205C0000205C000020FC00035CE7
:100AF000000020FC00075400002040000020E0001F
:020B00000001F2
:0400000500000AC12C
:00000001FF
